{
  "address": "0xFc5aF63F4B0247423A5aA4c0B755bC7991234190",
  "abi": [
    {
      "inputs": [
        {
          "internalType": "address payable",
          "name": "lssvmPairFactoryAddress",
          "type": "address"
        }
      ],
      "stateMutability": "nonpayable",
      "type": "constructor"
    },
    {
      "inputs": [],
      "name": "Ownable_NewOwnerZeroAddress",
      "type": "error"
    },
    {
      "inputs": [],
      "name": "Ownable_NotOwner",
      "type": "error"
    },
    {
      "anonymous": false,
      "inputs": [
        {
          "indexed": true,
          "internalType": "address",
          "name": "owner",
          "type": "address"
        },
        {
          "indexed": true,
          "internalType": "address",
          "name": "approved",
          "type": "address"
        },
        {
          "indexed": true,
          "internalType": "uint256",
          "name": "tokenId",
          "type": "uint256"
        }
      ],
      "name": "Approval",
      "type": "event"
    },
    {
      "anonymous": false,
      "inputs": [
        {
          "indexed": true,
          "internalType": "address",
          "name": "owner",
          "type": "address"
        },
        {
          "indexed": true,
          "internalType": "address",
          "name": "operator",
          "type": "address"
        },
        {
          "indexed": false,
          "internalType": "bool",
          "name": "approved",
          "type": "bool"
        }
      ],
      "name": "ApprovalForAll",
      "type": "event"
    },
    {
      "anonymous": false,
      "inputs": [],
      "name": "ERC1155Rescued",
      "type": "event"
    },
    {
      "anonymous": false,
      "inputs": [],
      "name": "ERC20Rescued",
      "type": "event"
    },
    {
      "anonymous": false,
      "inputs": [],
      "name": "ERC721Rescued",
      "type": "event"
    },
    {
      "anonymous": false,
      "inputs": [
        {
          "indexed": false,
          "internalType": "address",
          "name": "poolAddress",
          "type": "address"
        }
      ],
      "name": "NewPair",
      "type": "event"
    },
    {
      "anonymous": false,
      "inputs": [
        {
          "indexed": false,
          "internalType": "uint256",
          "name": "tokenId",
          "type": "uint256"
        }
      ],
      "name": "NewTokenId",
      "type": "event"
    },
    {
      "anonymous": false,
      "inputs": [
        {
          "indexed": true,
          "internalType": "address",
          "name": "newOwner",
          "type": "address"
        }
      ],
      "name": "OwnershipTransferred",
      "type": "event"
    },
    {
      "anonymous": false,
      "inputs": [
        {
          "indexed": true,
          "internalType": "address",
          "name": "from",
          "type": "address"
        },
        {
          "indexed": true,
          "internalType": "address",
          "name": "to",
          "type": "address"
        },
        {
          "indexed": true,
          "internalType": "uint256",
          "name": "tokenId",
          "type": "uint256"
        }
      ],
      "name": "Transfer",
      "type": "event"
    },
    {
      "inputs": [],
      "name": "_factory",
      "outputs": [
        {
          "internalType": "contract ILSSVMPairFactory",
          "name": "",
          "type": "address"
        }
      ],
      "stateMutability": "view",
      "type": "function"
    },
    {
      "inputs": [
        {
          "internalType": "address",
          "name": "to",
          "type": "address"
        },
        {
          "internalType": "uint256",
          "name": "tokenId",
          "type": "uint256"
        }
      ],
      "name": "approve",
      "outputs": [],
      "stateMutability": "nonpayable",
      "type": "function"
    },
    {
      "inputs": [
        {
          "internalType": "address",
          "name": "owner",
          "type": "address"
        }
      ],
      "name": "balanceOf",
      "outputs": [
        {
          "internalType": "uint256",
          "name": "",
          "type": "uint256"
        }
      ],
      "stateMutability": "view",
      "type": "function"
    },
    {
      "inputs": [
        {
          "internalType": "contract IERC721",
          "name": "_nft",
          "type": "address"
        },
        {
          "internalType": "contract ICurve",
          "name": "_bondingCurve",
          "type": "address"
        },
        {
          "internalType": "uint128",
          "name": "_delta",
          "type": "uint128"
        },
        {
          "internalType": "uint96",
          "name": "_fee",
          "type": "uint96"
        },
        {
          "internalType": "uint128",
          "name": "_spotPrice",
          "type": "uint128"
        },
        {
          "internalType": "uint256[]",
          "name": "_initialNFTIDs",
          "type": "uint256[]"
        }
      ],
      "name": "createDirectPairETH",
      "outputs": [
        {
          "internalType": "contract ILSSVMPairETH",
          "name": "newPair",
          "type": "address"
        }
      ],
      "stateMutability": "payable",
      "type": "function"
    },
    {
      "inputs": [
        {
          "internalType": "uint256",
          "name": "tokenId",
          "type": "uint256"
        }
      ],
      "name": "getAllHeldIds",
      "outputs": [
        {
          "internalType": "uint256[]",
          "name": "currentIds",
          "type": "uint256[]"
        }
      ],
      "stateMutability": "view",
      "type": "function"
    },
    {
      "inputs": [
        {
          "internalType": "uint256",
          "name": "tokenId",
          "type": "uint256"
        }
      ],
      "name": "getApproved",
      "outputs": [
        {
          "internalType": "address",
          "name": "",
          "type": "address"
        }
      ],
      "stateMutability": "view",
      "type": "function"
    },
    {
      "inputs": [
        {
          "internalType": "uint256",
          "name": "tokenId",
          "type": "uint256"
        }
      ],
      "name": "getMeasurableContribution",
      "outputs": [
        {
          "internalType": "uint256",
          "name": "contribution",
          "type": "uint256"
        }
      ],
      "stateMutability": "view",
      "type": "function"
    },
    {
      "inputs": [
        {
          "internalType": "address",
          "name": "owner",
          "type": "address"
        },
        {
          "internalType": "address",
          "name": "operator",
          "type": "address"
        }
      ],
      "name": "isApprovedForAll",
      "outputs": [
        {
          "internalType": "bool",
          "name": "",
          "type": "bool"
        }
      ],
      "stateMutability": "view",
      "type": "function"
    },
    {
      "inputs": [
        {
          "internalType": "address",
          "name": "_owner",
          "type": "address"
        },
        {
          "internalType": "uint256",
          "name": "tokenId",
          "type": "uint256"
        }
      ],
      "name": "isApprovedToOperateOnPool",
      "outputs": [
        {
          "internalType": "bool",
          "name": "",
          "type": "bool"
        }
      ],
      "stateMutability": "view",
      "type": "function"
    },
    {
      "inputs": [
        {
          "internalType": "address",
          "name": "_pool",
          "type": "address"
        }
      ],
      "name": "isPoolAlive",
      "outputs": [
        {
          "internalType": "bool",
          "name": "",
          "type": "bool"
        }
      ],
      "stateMutability": "view",
      "type": "function"
    },
    {
      "inputs": [],
      "name": "name",
      "outputs": [
        {
          "internalType": "string",
          "name": "",
          "type": "string"
        }
      ],
      "stateMutability": "view",
      "type": "function"
    },
    {
      "inputs": [
        {
          "internalType": "address",
          "name": "",
          "type": "address"
        },
        {
          "internalType": "address",
          "name": "",
          "type": "address"
        },
        {
          "internalType": "uint256[]",
          "name": "",
          "type": "uint256[]"
        },
        {
          "internalType": "uint256[]",
          "name": "",
          "type": "uint256[]"
        },
        {
          "internalType": "bytes",
          "name": "",
          "type": "bytes"
        }
      ],
      "name": "onERC1155BatchReceived",
      "outputs": [
        {
          "internalType": "bytes4",
          "name": "",
          "type": "bytes4"
        }
      ],
      "stateMutability": "nonpayable",
      "type": "function"
    },
    {
      "inputs": [
        {
          "internalType": "address",
          "name": "",
          "type": "address"
        },
        {
          "internalType": "address",
          "name": "",
          "type": "address"
        },
        {
          "internalType": "uint256",
          "name": "",
          "type": "uint256"
        },
        {
          "internalType": "uint256",
          "name": "",
          "type": "uint256"
        },
        {
          "internalType": "bytes",
          "name": "",
          "type": "bytes"
        }
      ],
      "name": "onERC1155Received",
      "outputs": [
        {
          "internalType": "bytes4",
          "name": "",
          "type": "bytes4"
        }
      ],
      "stateMutability": "nonpayable",
      "type": "function"
    },
    {
      "inputs": [
        {
          "internalType": "address",
          "name": "",
          "type": "address"
        },
        {
          "internalType": "address",
          "name": "",
          "type": "address"
        },
        {
          "internalType": "uint256",
          "name": "",
          "type": "uint256"
        },
        {
          "internalType": "bytes",
          "name": "",
          "type": "bytes"
        }
      ],
      "name": "onERC721Received",
      "outputs": [
        {
          "internalType": "bytes4",
          "name": "",
          "type": "bytes4"
        }
      ],
      "stateMutability": "pure",
      "type": "function"
    },
    {
      "inputs": [],
      "name": "owner",
      "outputs": [
        {
          "internalType": "address",
          "name": "",
          "type": "address"
        }
      ],
      "stateMutability": "view",
      "type": "function"
    },
    {
      "inputs": [
        {
          "internalType": "uint256",
          "name": "tokenId",
          "type": "uint256"
        }
      ],
      "name": "ownerOf",
      "outputs": [
        {
          "internalType": "address",
          "name": "",
          "type": "address"
        }
      ],
      "stateMutability": "view",
      "type": "function"
    },
    {
      "inputs": [
        {
          "internalType": "uint256",
          "name": "tokenId",
          "type": "uint256"
        }
      ],
      "name": "refreshPoolParameters",
      "outputs": [],
      "stateMutability": "nonpayable",
      "type": "function"
    },
    {
      "inputs": [
        {
          "internalType": "contract IERC1155",
          "name": "a",
          "type": "address"
        },
        {
          "internalType": "uint256[]",
          "name": "ids",
          "type": "uint256[]"
        },
        {
          "internalType": "uint256[]",
          "name": "amounts",
          "type": "uint256[]"
        },
        {
          "internalType": "uint256",
          "name": "tokenId",
          "type": "uint256"
        }
      ],
      "name": "rescueERC1155",
      "outputs": [],
      "stateMutability": "nonpayable",
      "type": "function"
    },
    {
      "inputs": [
        {
          "internalType": "contract IERC20",
          "name": "a",
          "type": "address"
        },
        {
          "internalType": "uint256",
          "name": "amount",
          "type": "uint256"
        },
        {
          "internalType": "uint256",
          "name": "tokenId",
          "type": "uint256"
        }
      ],
      "name": "rescueERC20",
      "outputs": [],
      "stateMutability": "nonpayable",
      "type": "function"
    },
    {
      "inputs": [
        {
          "internalType": "contract IERC721",
          "name": "a",
          "type": "address"
        },
        {
          "internalType": "uint256[]",
          "name": "nftIds",
          "type": "uint256[]"
        },
        {
          "internalType": "uint256",
          "name": "tokenId",
          "type": "uint256"
        }
      ],
      "name": "rescueERC721",
      "outputs": [],
      "stateMutability": "nonpayable",
      "type": "function"
    },
    {
      "inputs": [
        {
          "internalType": "address",
          "name": "from",
          "type": "address"
        },
        {
          "internalType": "address",
          "name": "to",
          "type": "address"
        },
        {
          "internalType": "uint256",
          "name": "tokenId",
          "type": "uint256"
        }
      ],
      "name": "safeTransferFrom",
      "outputs": [],
      "stateMutability": "nonpayable",
      "type": "function"
    },
    {
      "inputs": [
        {
          "internalType": "address",
          "name": "from",
          "type": "address"
        },
        {
          "internalType": "address",
          "name": "to",
          "type": "address"
        },
        {
          "internalType": "uint256",
          "name": "tokenId",
          "type": "uint256"
        },
        {
          "internalType": "bytes",
          "name": "data",
          "type": "bytes"
        }
      ],
      "name": "safeTransferFrom",
      "outputs": [],
      "stateMutability": "nonpayable",
      "type": "function"
    },
    {
      "inputs": [
        {
          "internalType": "address",
          "name": "operator",
          "type": "address"
        },
        {
          "internalType": "bool",
          "name": "approved",
          "type": "bool"
        }
      ],
      "name": "setApprovalForAll",
      "outputs": [],
      "stateMutability": "nonpayable",
      "type": "function"
    },
    {
      "inputs": [
        {
          "internalType": "bytes4",
          "name": "interfaceId",
          "type": "bytes4"
        }
      ],
      "name": "supportsInterface",
      "outputs": [
        {
          "internalType": "bool",
          "name": "",
          "type": "bool"
        }
      ],
      "stateMutability": "view",
      "type": "function"
    },
    {
      "inputs": [],
      "name": "symbol",
      "outputs": [
        {
          "internalType": "string",
          "name": "",
          "type": "string"
        }
      ],
      "stateMutability": "view",
      "type": "function"
    },
    {
      "inputs": [
        {
          "internalType": "uint256",
          "name": "index",
          "type": "uint256"
        }
      ],
      "name": "tokenByIndex",
      "outputs": [
        {
          "internalType": "uint256",
          "name": "",
          "type": "uint256"
        }
      ],
      "stateMutability": "view",
      "type": "function"
    },
    {
      "inputs": [
        {
          "internalType": "address",
          "name": "owner",
          "type": "address"
        },
        {
          "internalType": "uint256",
          "name": "index",
          "type": "uint256"
        }
      ],
      "name": "tokenOfOwnerByIndex",
      "outputs": [
        {
          "internalType": "uint256",
          "name": "",
          "type": "uint256"
        }
      ],
      "stateMutability": "view",
      "type": "function"
    },
    {
      "inputs": [
        {
          "internalType": "uint256",
          "name": "tokenId",
          "type": "uint256"
        }
      ],
      "name": "tokenURI",
      "outputs": [
        {
          "internalType": "string",
          "name": "",
          "type": "string"
        }
      ],
      "stateMutability": "view",
      "type": "function"
    },
    {
      "inputs": [],
      "name": "totalSupply",
      "outputs": [
        {
          "internalType": "uint256",
          "name": "",
          "type": "uint256"
        }
      ],
      "stateMutability": "view",
      "type": "function"
    },
    {
      "inputs": [
        {
          "internalType": "address",
          "name": "from",
          "type": "address"
        },
        {
          "internalType": "address",
          "name": "to",
          "type": "address"
        },
        {
          "internalType": "uint256",
          "name": "tokenId",
          "type": "uint256"
        }
      ],
      "name": "transferFrom",
      "outputs": [],
      "stateMutability": "nonpayable",
      "type": "function"
    },
    {
      "inputs": [
        {
          "internalType": "address",
          "name": "newOwner",
          "type": "address"
        }
      ],
      "name": "transferOwnership",
      "outputs": [],
      "stateMutability": "nonpayable",
      "type": "function"
    },
    {
      "inputs": [
        {
          "internalType": "uint256",
          "name": "tokenId",
          "type": "uint256"
        }
      ],
      "name": "useLPTokenToDestroyDirectPairETH",
      "outputs": [],
      "stateMutability": "nonpayable",
      "type": "function"
    },
    {
      "inputs": [
        {
          "internalType": "uint256",
          "name": "tokenId",
          "type": "uint256"
        },
        {
          "internalType": "address",
          "name": "nftAddress",
          "type": "address"
        },
        {
          "internalType": "address",
          "name": "bondingCurveAddress",
          "type": "address"
        },
        {
          "internalType": "uint96",
          "name": "fee",
          "type": "uint96"
        },
        {
          "internalType": "uint128",
          "name": "delta",
          "type": "uint128"
        }
      ],
      "name": "validatePoolParamsEq",
      "outputs": [
        {
          "internalType": "bool",
          "name": "",
          "type": "bool"
        }
      ],
      "stateMutability": "view",
      "type": "function"
    },
    {
      "inputs": [
        {
          "internalType": "uint256",
          "name": "tokenId",
          "type": "uint256"
        },
        {
          "internalType": "address",
          "name": "nftAddress",
          "type": "address"
        },
        {
          "internalType": "address",
          "name": "bondingCurveAddress",
          "type": "address"
        },
        {
          "internalType": "uint96",
          "name": "fee",
          "type": "uint96"
        },
        {
          "internalType": "uint128",
          "name": "delta",
          "type": "uint128"
        }
      ],
      "name": "validatePoolParamsLte",
      "outputs": [
        {
          "internalType": "bool",
          "name": "",
          "type": "bool"
        }
      ],
      "stateMutability": "view",
      "type": "function"
    },
    {
      "inputs": [
        {
          "internalType": "uint256",
          "name": "tokenId",
          "type": "uint256"
        }
      ],
      "name": "viewPoolParams",
      "outputs": [
        {
          "components": [
            {
              "internalType": "address",
              "name": "nftAddress",
              "type": "address"
            },
            {
              "internalType": "address",
              "name": "bondingCurveAddress",
              "type": "address"
            },
            {
              "internalType": "address payable",
              "name": "poolAddress",
              "type": "address"
            },
            {
              "internalType": "uint96",
              "name": "fee",
              "type": "uint96"
            },
            {
              "internalType": "uint128",
              "name": "delta",
              "type": "uint128"
            },
            {
              "internalType": "uint128",
              "name": "initialSpotPrice",
              "type": "uint128"
            },
            {
              "internalType": "uint256",
              "name": "initialPoolBalance",
              "type": "uint256"
            },
            {
              "internalType": "uint256",
              "name": "initialNFTIDsLength",
              "type": "uint256"
            }
          ],
          "internalType": "struct ICollectionswap.LPTokenParams721ETH",
          "name": "poolParams",
          "type": "tuple"
        }
      ],
      "stateMutability": "view",
      "type": "function"
    },
    {
      "stateMutability": "payable",
      "type": "receive"
    }
  ],
  "transactionHash": "0x7e38f6cf544add6201b13ca80275730a5fb9b9c4eef89b4b5b69f543ad681af8",
  "args": [
    "0xDc64a140Aa3E981100a9becA4E685f962f0cF6C9"
  ],
  "numDeployments": 1,
  "solcInputHash": "3107272a9770ec6906a4a0f7809fbe4d",
  "bytecode": "0x60c0346200038057601f196001600160401b03601f6200398338819003828101851686018481118782101762000299578692829160405283396020958691810103126200038057516001600160a01b038116929083900362000380576200006562000385565b91600e83526d0436f6c6c656374696f6e737761760941b868401526200008a62000385565b95600e87526d0436f6c6c6563745375646f204c560941b81880152835183811162000299576001948554908682811c9216801562000375575b84831014620002785781858493116200031f575b508390858311600114620002bb57600092620002af575b5050600019600383901b1c191690851b1784555b8651928311620002995760029586548581811c911680156200028e575b8382101462000278578381116200022d575b5081928411600114620001c75750508192939495600092620001bb575b5050600019600383901b1c191690821b1783555b600080546001600160a01b03191633179055600c5560805260a0526040516135dd9081620003a68239608051818181610bab015281816112b10152818161139e0152612091015260a05181818161130501526113340152f35b0151905038806200014e565b6000878152828120918516989193925b89821062000215575050838596979810620001fb575b505050811b01835562000162565b015160001960f88460031b161c19169055388080620001ed565b808785968294968601518155019501930190620001d7565b87600052826000208480870160051c8201928588106200026e575b0160051c019086905b8281106200026157505062000131565b6000815501869062000251565b9250819262000248565b634e487b7160e01b600052602260045260246000fd5b90607f16906200011f565b634e487b7160e01b600052604160045260246000fd5b015190503880620000ee565b90898894169184600052856000209260005b87828210620003085750508411620002ee575b505050811b01845562000102565b015160001960f88460031b161c19169055388080620002e0565b8385015186558b97909501949384019301620002cd565b90915086600052836000208580850160051c8201928686106200036b575b918991869594930160051c01915b8281106200035b575050620000d7565b600081558594508991016200034b565b925081926200033d565b91607f1691620000c3565b600080fd5b60408051919082016001600160401b03811183821017620002995760405256fe6080604052600436101561001b575b361561001957600080fd5b005b6000803560e01c80630110f188146125eb57806301ffc9a714612548578063029032e6146124ab57806306fd072d14611eac57806306fdde0314611e08578063081812fc14611de9578063095ea7b314611c6f578063150b7a0214611c4b57806318160ddd14611c2d5780632376583614611ba557806323b872dd14611b805780632f745c5914611ad35780633d7c1bfc14611a9657806342842e0e14611a6357806345b56380146118ba5780634f6ccce7146118285780636352211e146117f757806370a08231146117cb57806387141f021461120457806388934a06146111d25780638da5cb5b146111ab57806395d89b41146110c6578063a22cb46514610ff4578063b88d4fde14610fb2578063bc197c8114610f29578063c481d84114610bda578063c5cc6b6a14610b95578063c6d2562314610943578063c87b56dd14610835578063cdb71d0d146107a6578063e985e9c514610752578063ef8673691461053b578063f04e0634146102f5578063f23a6e611461029f5763f2fde38b146101a8575061000e565b3461029c57602036600319011261029c576101c161267e565b81546001600160a01b03338183160361028a5782168015610278578084926001600160601b0360a01b1617825560405192817f04dba622d284ed0014ee4b9a6a68386be1a4c08a4913ae272de89199cc6861638480a23b610220575080f35b803b1561027457826024818480946314e8368d60e31b83523360048401525af19182610260575b505061025b57610255612f03565b50388180f35b388180f35b61026990612763565b610274578138610247565b5080fd5b604051633b7c6c7f60e21b8152600490fd5b604051635eee3ad160e01b8152600490fd5b80fd5b503461029c5760a036600319011261029c576102b961267e565b506102c2612694565b506084356001600160401b038111610274576102e29036906004016127e8565b5060405163f23a6e6160e01b8152602090f35b503461029c57606036600319011261029c576001600160a01b036004358181169081900361047157826024359260443580156000146104ba575061033c91541633146134d3565b60405163a9059cbb60e01b602080830191825233602484015260448084019590955293825290919061036f6064846127ac565b6040519261037c84612776565b8484527f5361666545524332303a206c6f772d6c6576656c2063616c6c206661696c656485850152823b15610475576103c79392869283809351925af16103c1612f03565b9061350b565b8051806103f7575b837f549639b4800706ffeb7175ba0c6b929284789667d40a584575117d43f5df269b8180a180f35b81839181010312610471578101518015908115036104715761041a5780806103cf565b6084906040519062461bcd60e51b82526004820152602a60248201527f5361666545524332303a204552433230206f7065726174696f6e20646964206e6044820152691bdd081cdd58d8d9595960b21b6064820152fd5b8280fd5b60405162461bcd60e51b815260048101869052601d60248201527f416464726573733a2063616c6c20746f206e6f6e2d636f6e74726163740000006044820152606490fd5b906104da6104df91838552600e6020526002604086200154169233613492565b6130ef565b803b15610274578180916044604051809481936350edcbc160e11b83528860048401528960248401525af180156105305761051c575b505061033c565b61052590612763565b610471578238610515565b6040513d84823e3d90fd5b503461029c57606036600319011261029c5761055561267e565b816024356001600160401b038111610274576105759036906004016128ed565b9060443580610645575061059360018060a01b0384541633146134d3565b9290925b6001600160a01b0390911690825b8481106105d457837ff0d8db23b8f0b8d1dea970ce598d5903cc446f99d2a1c3995ffdb1b770c1ba8e8180a180f35b823b1561063657604051632142170760e11b8152306004820152336024820152600582901b8301356044820152848160648183885af190811561063a578591610622575b50506001016105a5565b61062b90612763565b610636578338610618565b8380fd5b6040513d87823e3d90fd5b808452600e60205260408420906106dd6040519161066283612747565b6106cf6104da60018060a01b03928387541686528360018801541660208701526005600288015497858916988960408a015260a01c606089015260038101546001600160801b03811660808a015260801c60a0890152600481015460c0890152015460e087015233613492565b80881692511682141561354b565b813b1561074e5784906040519283916313edab8160e01b8352600483015260406024830152818381610713604482018a8a613327565b03925af190811561074357849161072f575b5050929092610597565b61073890612763565b610471578238610725565b6040513d86823e3d90fd5b8480fd5b503461029c57604036600319011261029c5761076c61267e565b6040610776612694565b9260018060a01b0380931681526006602052209116600052602052602060ff604060002054166040519015158152f35b503461029c57602036600319011261029c576101006107c6600435613213565b60e06040519160018060a01b0380825116845280602083015116602085015260408201511660408401526001600160601b0360608201511660608401526001600160801b0380608083015116608085015260a08201511660a084015260c081015160c0840152015160e0820152f35b503461029c576020908160031936011261029c5750600435600081815260036020526040902054610870906001600160a01b03161515612a14565b600052600b815260406000209060405191826000825461088f81612a83565b938484526001918683821691826000146109215750506001146108e2575b50506108bb925003836127ac565b60006040516108c981612791565b526108de604051928284938452830190612707565b0390f35b85925060005281600020906000915b8583106109095750506108bb935082010138806108ad565b805483890185015287945086939092019181016108f1565b92509350506108bb94915060ff191682840152151560051b82010138806108ad565b503461029c5780600319608036820112610b92576001600160a01b039060043582811690819003610b8d576001600160401b0390602435828111610b895761098f9036906004016128ed565b9092604435908111610a6d576109a99036906004016128ed565b956064359081610a71576109c2915088541633146134d3565b823b15610a6d576020879586610a168194610a069a6040519b8c9a8b99631759616b60e11b8b523060048c01523360248c015260a060448c015260a48b0191613327565b91858984030160648a0152613327565b85810392830160848701525201925af1801561053057610a59575b50807fcc85acda6e8701522b69958b6ba1a9043bf9befffda96482e4b8665d5746760591a180f35b610a6290612763565b61029c578038610a31565b8680fd5b610afe90828a52600e60205260408a2092610af46104da60405192610a9584612747565b84875416845284600188015416602085015260056002880154978689169889604088015260a01c606087015260038101546001600160801b038116608088015260801c60a0870152600481015460c0870152015460e085015233613492565b511685141561354b565b803b15610b855787610b3d8892878388610b4d8c6040519889978896879563a5ceac9960e01b87526004870152606060248701528d6064870191613327565b918483030160448501528a613327565b03925af1908115610b7a578891610b66575b50506109c2565b610b6f90612763565b610a6d578638610b5f565b6040513d8a823e3d90fd5b8780fd5b8580fd5b505050fd5b50fd5b503461029c578060031936011261029c576040517f00000000000000000000000000000000000000000000000000000000000000006001600160a01b03168152602090f35b503461029c57602036600319011261029c576004358152600e6020526040812060405190610c0782612747565b60018060a01b03815416825260018060a01b0360018201541691602081019283526002820154906005604082019360018060a01b03841685528360a01c606084015260038101546001600160801b038116608085015260801c60a0840152600481015460c0840152015460e0820152610c856104da60043533613492565b604051632f4fefaf60e01b81529085826004816001600160a01b0387165afa918215610f1e578692610efa575b50519351925160405163ddca3f4360e01b81526001600160a01b0395861695948516949182169390916020908390600490829085165afa918215610eef578792610eab575b5060405163025692b560e31b8152916020836004816001600160a01b0386165afa928315610b7a578893610e8a575b50604051630730905b60e31b8152956020876004816001600160a01b0387165afa928315610e7f576005978a94610e4e575b5060018060a01b03163194519560405198610d728a612747565b895260208901918252604089019081526001600160601b0360608a01931683526001600160801b0360808a01951685526001600160801b0360a08a019416845260c0890195865260e089019687526004358a52600e60205260408a209860018060a01b03905116916001600160601b0360a01b92838b5416178a5560018a019060018060a01b039051168382541617905560018060a01b03905116915160a01b161760028701556001600160801b0360038701925116878354926001600160801b0319905160801b169216171790555160048401555191015580f35b610e7191945060203d602011610e78575b610e6981836127ac565b8101906131a8565b9238610d58565b503d610e5f565b6040513d8b823e3d90fd5b610ea491935060203d602011610e7857610e6981836127ac565b9138610d26565b9091506020813d602011610ee7575b81610ec7602093836127ac565b81010312610a6d57516001600160601b0381168103610a6d579038610cf7565b3d9150610eba565b6040513d89823e3d90fd5b610f179192503d8088833e610f0f81836127ac565b81019061312f565b9038610cb2565b6040513d88823e3d90fd5b503461029c5760a036600319011261029c57610f4361267e565b50610f4c612694565b506001600160401b0360443581811161047157610f6d903690600401612982565b5060643581811161047157610f86903690600401612982565b5060843590811161027457610f9f9036906004016127e8565b5060405163bc197c8160e01b8152602090f35b503461029c57610ff1610fec610fc73661282f565b92610fdc610fd783949333612bd1565b612afb565b610fe7838383612c3f565b613027565b612bb1565b80f35b503461029c57604036600319011261029c5761100e61267e565b60243590811515809203610471576001600160a01b0316903382146110815733835260066020526040832082600052602052604060002060ff1981541660ff83161790556040519081527f17307eab39ab6107e8899845ad3d59bd9653f200f220920489ca2b5937696c3160203392a380f35b60405162461bcd60e51b815260206004820152601960248201527f4552433732313a20617070726f766520746f2063616c6c6572000000000000006044820152606490fd5b503461029c578060031936011261029c5760405190806002546110e881612a83565b808552916001918083169081156111815750600114611126575b6108de85611112818703826127ac565b604051918291602083526020830190612707565b9250600283527f405787fa12a823e0f2b7631cc41b3ba8828b3321ca811111fa75cd3aa3bb5ace5b828410611169575050508101602001611112826108de611102565b8054602085870181019190915290930192810161114e565b8695506108de9693506020925061111294915060ff191682840152151560051b8201019293611102565b503461029c578060031936011261029c57546040516001600160a01b039091168152602090f35b503461029c57604036600319011261029c5760206111fa6111f161267e565b60243590613492565b6040519015158152f35b5060c036600319011261029c5761121961267e565b602435906001600160a01b0382168203610471576044356001600160801b03811681036117c657606435906001600160601b03821682036117c657608435906001600160801b03821682036117c65760a4356001600160401b038111610a6d576112879036906004016128ed565b9390956112996002600c5414156131c7565b6002600c556112d56112ac36878a612934565b8730337f000000000000000000000000000000000000000000000000000000000000000061335f565b60405163ce9c095d60e01b81526001600160a01b03878116600483015282166024820152604481018990529660037f000000000000000000000000000000000000000000000000000000000000000010156117b25787806113996020937f000000000000000000000000000000000000000000000000000000000000000060648401526001600160801b03881660848401526001600160601b03871660a48401526001600160801b03891660c484015261010060e484015289610104840191613327565b0381347f00000000000000000000000000000000000000000000000000000000000000006001600160a01b03165af1968715610b7a57889761175f575b50916001600160601b036001600160801b039493928593604051986113fa8a612747565b6001600160a01b039081168a5290811660208a0152891660408901521660608701521660808501521660a08301523460c083015260e0820152600f5460001981146117495760018101600f55600181018452600e602052604084209160018060a01b03815116926001600160601b0360a01b93848254161781556001810160018060a01b0360208401511685825416179055600560e060018060a01b036040850151169386606082015160a01b1685176002850155600384016001600160801b036080830151168154908b6001600160801b031960a086015160801b1692161717905560c0810151600485015501519101558452600d60205260408420600160ff198254161790557f8a1767404395cfcd1267c6537e872277dde277a29ac6dea742a111469f324a586020604051600184018152a160405191602083018381106001600160401b038211176117335760405284835233156116ef57600182016000908152600360205260409020546001600160a01b03166116aa57600954600183018652600a602052806040872055600160401b811015611696576115a88160016115c593016009556130a2565b600185019082549060031b600019811b9283911b16911916179055565b6115ce3361299d565b3386526007602052604086208187526020526001830160408720556001830186526008602052604086205533855260046020526040852080549060018201809211611682579260209661166b9593600193610fec9655838301825260038952604082209033908254161790558282019033907fddf252ad1be2c89b69c2b068fc378daa952ba7f163c4a11628f55a4df523b3ef8180a40133612f33565b6001600c556040516001600160a01b039091168152f35b634e487b7160e01b87526011600452602487fd5b634e487b7160e01b86526041600452602486fd5b60405162461bcd60e51b815260206004820152601c60248201527f4552433732313a20746f6b656e20616c7265616479206d696e746564000000006044820152606490fd5b606460405162461bcd60e51b815260206004820152602060248201527f4552433732313a206d696e7420746f20746865207a65726f20616464726573736044820152fd5b634e487b7160e01b600052604160045260246000fd5b634e487b7160e01b600052601160045260246000fd5b9096506020939293813d6020116117aa575b8161177e602093836127ac565b81010312610b855751926001600160a01b0384168403610b855792959192916001600160601b036113d6565b3d9150611771565b634e487b7160e01b89526021600452602489fd5b600080fd5b503461029c57602036600319011261029c5760206117ef6117ea61267e565b61299d565b604051908152f35b503461029c57602036600319011261029c576020611816600435612a60565b6040516001600160a01b039091168152f35b503461029c57602036600319011261029c57600435600954811015611860576118526020916130a2565b90546040519160031b1c8152f35b60405162461bcd60e51b815260206004820152602c60248201527f455243373231456e756d657261626c653a20676c6f62616c20696e646578206f60448201526b7574206f6620626f756e647360a01b6064820152608490fd5b503461029c576020908160031936011261029c5760e0906004358152600e83526040812090604051916118ec83612747565b60018060a01b0392838254168152600193808584015416878301526002830154908116604083015260a01c606082015260038201546001600160801b038116608083015260801c60a082015260056004830154928360c084015201549485910152838102938185041490151715611a4f57508082600160801b811015611a3d575b80600160401b6008921015611a31575b640100000000811015611a25575b62010000811015611a19575b610100811015611a0d575b6010811015611a00575b10156119f9575b80830401811c80830401811c80830401811c80830401811c80830401811c80830401811c80830401901c8091048181106119f1575b50604051908152f35b9050386119e8565b811b6119b3565b60041c9160021b916119ac565b811c9160041b916119a2565b60101c91811b91611997565b851c9160101b9161198b565b60401c91851b9161197d565b50600160401b9050608083901c61196d565b634e487b7160e01b81526011600452602490fd5b503461029c57610ff1610fec611a78366128b8565b9060405192611a8684612791565b868452610fdc610fd78433612bd1565b503461029c57602036600319011261029c5760206111fa611ab561267e565b6001600160a01b03166000908152600d602052604090205460ff1690565b503461029c57604036600319011261029c57611aed61267e565b60243591611afa8261299d565b831015611b275760209260409260018060a01b031682526007845282822090825283522054604051908152f35b60405162461bcd60e51b815260206004820152602b60248201527f455243373231456e756d657261626c653a206f776e657220696e646578206f7560448201526a74206f6620626f756e647360a81b6064820152608490fd5b503461029c57610ff1611b92366128b8565b91611ba0610fd78433612bd1565b612c3f565b503461029c57602036600319011261029c57600480358252600e6020526040808320600201549051632f4fefaf60e01b815291839183919082906001600160a01b03165afa90811561053057826108de9392611c12575b5050604051918291602083526020830190612884565b611c2692503d8091833e610f0f81836127ac565b3880611bfc565b503461029c578060031936011261029c576020600954604051908152f35b503461029c57611c5a3661282f565b505050506020604051630a85bd0160e11b8152f35b503461029c57604036600319011261029c57611c8961267e565b602435906001600160a01b038080611ca085612a60565b16921691808314611d9a57803314908115611d77575b5015611d0c57600083815260056020526040902080546001600160a01b03191683179055611ce383612a60565b167f8c5be1e5ebec7d5bd14f71427d1e84f3dd0314c0f7b2291e5b200ac8c7c3b925600080a480f35b60405162461bcd60e51b815260206004820152603e60248201527f4552433732313a20617070726f76652063616c6c6572206973206e6f7420746f60448201527f6b656e206f776e6572206e6f7220617070726f76656420666f7220616c6c00006064820152608490fd5b905084526006602052604084203360005260205260ff6040600020541638611cb6565b60405162461bcd60e51b815260206004820152602160248201527f4552433732313a20617070726f76616c20746f2063757272656e74206f776e656044820152603960f91b6064820152608490fd5b503461029c57602036600319011261029c576020611816600435612abd565b503461029c578060031936011261029c5760405190806001805491611e2c83612a83565b808652928281169081156111815750600114611e52576108de85611112818703826127ac565b92508083527fb10e2d527612073b26eecdfd717e6a320cf44b4afac2b0732d9fcbe2b7fa0cf65b828410611e94575050508101602001611112826108de611102565b80546020858701810191909152909301928101611e79565b503461029c576020806003193601126102745760043590611ed26002600c5414156131c7565b6002600c55818352600e8152604083209160405192611ef084612747565b60018060a01b039081815416908186526001958387830154168682015260e060056002840154936040840194878116865260a01c606085015260038101546001600160801b038116608086015260801c60a0850152600481015460c08501520154910152604051606081018181106001600160401b0382111761249757604052602181527f6f6e6c7920746f6b656e206f776e65722063616e2064657374726f7920706f6f86820152601b60fa1b6040820152848852600e865283600260408a2001541690818952600d875260ff60408a20541615612463575b611fd48633613492565b1561243d57506040516311bb2c1b60e11b81526004810186905260249389828681305afa918215612432578a92612416575b50823b156123f4576040516313edab8160e01b81528160048201526040868201528a81806120376044820187612884565b038183885af1801561240b576123f8575b50894793803b15610274578180916004604051809481936390386bbf60e01b83525af18015610530576123e0575b5050479283039283116123cb578980936120b58294839433307f000000000000000000000000000000000000000000000000000000000000000061335f565b335af16120c0612f03565b5015612390575182168652600d845260408620805460ff191690556120e483612a60565b91821691826122f15750600954838752600a8552806040882055600160401b8110156122de578361211d828861213894016009556130a2565b90919082549060031b600019811b9283911b16911916179055565b60095460001991908281019081116122cb57848852600a865261215f6040892054916130a2565b90549060031b1c6121738161211d846130a2565b8852600a865260408820558387526000604088205560095480156122b857820161219c816130a2565b8482549160031b1b191690556009556121b484612eaf565b82875260048552604087209081549283019283116122a6575055818552600383526040852080546001600160a01b0319169055819085907fddf252ad1be2c89b69c2b068fc378daa952ba7f163c4a11628f55a4df523b3ef8280a4600b82526122206040852054612a83565b61222d575b5050600c5580f35b8352600b815260408320906122428254612a83565b8061224e575b50612225565b601f8111600114612268575050600090555b388080612248565b908291859384528480601f848720930160051c830192015b828110612297575050506000908320915555612260565b60008155879550869101612280565b634e487b7160e01b8852601160045287fd5b50634e487b7160e01b8752603160045286fd5b50634e487b7160e01b8752601160045286fd5b50634e487b7160e01b8652604160045285fd5b6122fa9061299d565b600019810190811161237d57838752600885526040872054818103612341575b50838752600060408820558287526007855260408720908752845260006040872055612138565b8388526007865260408820828952865260408820548489526007875260408920828a5287528060408a205588526008865260408820553861231a565b50634e487b7160e01b8652601160045285fd5b60405162461bcd60e51b815260048101869052601481840152732330b4b632b2103a379039b2b7321022ba3432b960611b6044820152606490fd5b84634e487b7160e01b60005260116004526000fd5b6123e990612763565b6123f4578938612076565b8980fd5b612404909a919a612763565b9838612048565b6040513d8d823e3d90fd5b61242b9192503d808c833e610f0f81836127ac565b9038612006565b6040513d8c823e3d90fd5b8661245f60405192839262461bcd60e51b845260048401526024830190612707565b0390fd5b5060405161247081612776565b60168152751c1bdbdb08185b1c9958591e4819195cdd1c9bde595960521b87820152611fca565b634e487b7160e01b89526041600452602489fd5b503461029c5760206124ca6124bf366126aa565b939490919294613213565b80516001600160a01b03958616908616149490929085612536575b50508361251b575b5082612500575b50506040519015158152f35b608001516001600160801b03918216911614905082806124f4565b60608201516001600160601b039182169116149250846124ed565b868401518116911614935085806124e5565b503461029c57602036600319011261029c5760043563ffffffff60e01b81168091036102745760209063780e9d6360e01b811490811561258e575b506040519015158152f35b6380ac58cd60e01b8114915081156125da575b81156125af575b5082612583565b630271189760e51b8114915081156125c9575b50826125a8565b6301ffc9a760e01b149050826125c2565b635b5e139f60e01b811491506125a1565b503461029c5760206125ff6124bf366126aa565b80516001600160a01b0395861690861614949092908561266c575b505083612650575b50826126345750506040519015158152f35b608001516001600160801b0390811691161015905082806124f4565b60608201516001600160601b0390811691161015925084612622565b8684015181169116149350858061261a565b600435906001600160a01b03821682036117c657565b602435906001600160a01b03821682036117c657565b60a09060031901126117c657600435906001600160a01b039060243582811681036117c6579160443590811681036117c657906064356001600160601b03811681036117c657906084356001600160801b03811681036117c65790565b919082519283825260005b848110612733575050826000602080949584010152601f8019910116010190565b602081830181015184830182015201612712565b61010081019081106001600160401b0382111761173357604052565b6001600160401b03811161173357604052565b604081019081106001600160401b0382111761173357604052565b602081019081106001600160401b0382111761173357604052565b90601f801991011681019081106001600160401b0382111761173357604052565b6001600160401b03811161173357601f01601f191660200190565b81601f820112156117c6578035906127ff826127cd565b9261280d60405194856127ac565b828452602083830101116117c657816000926020809301838601378301015290565b9060806003198301126117c6576001600160a01b039160043583811681036117c6579260243590811681036117c6579160443591606435906001600160401b0382116117c657612881916004016127e8565b90565b90815180825260208080930193019160005b8281106128a4575050505090565b835185529381019392810192600101612896565b60609060031901126117c6576001600160a01b039060043582811681036117c6579160243590811681036117c6579060443590565b9181601f840112156117c6578235916001600160401b0383116117c6576020808501948460051b0101116117c657565b6001600160401b0381116117335760051b60200190565b929161293f8261291d565b9161294d60405193846127ac565b829481845260208094019160051b81019283116117c657905b8282106129735750505050565b81358152908301908301612966565b9080601f830112156117c65781602061288193359101612934565b6001600160a01b031680156129bd57600052600460205260406000205490565b60405162461bcd60e51b815260206004820152602960248201527f4552433732313a2061646472657373207a65726f206973206e6f7420612076616044820152683634b21037bbb732b960b91b6064820152608490fd5b15612a1b57565b60405162461bcd60e51b815260206004820152601860248201527f4552433732313a20696e76616c696420746f6b656e20494400000000000000006044820152606490fd5b6000908152600360205260409020546001600160a01b0316612881811515612a14565b90600182811c92168015612ab3575b6020831014612a9d57565b634e487b7160e01b600052602260045260246000fd5b91607f1691612a92565b600081815260036020526040902054612ae0906001600160a01b03161515612a14565b6000908152600560205260409020546001600160a01b031690565b15612b0257565b60405162461bcd60e51b815260206004820152602e60248201527f4552433732313a2063616c6c6572206973206e6f7420746f6b656e206f776e6560448201526d1c881b9bdc88185c1c1c9bdd995960921b6064820152608490fd5b60809060208152603260208201527f4552433732313a207472616e7366657220746f206e6f6e20455243373231526560408201527131b2b4bb32b91034b6b83632b6b2b73a32b960711b60608201520190565b15612bb857565b60405162461bcd60e51b81528061245f60048201612b5e565b906001600160a01b038080612be584612a60565b16931691838314938415612c18575b508315612c02575b50505090565b612c0e91929350612abd565b1614388080612bfc565b909350600052600660205260406000208260005260205260ff604060002054169238612bf4565b90612c4983612a60565b6001600160a01b0383811692918116839003612e5c578116928315612e0b5782612d75575060095484600052600a60205280604060002055600160401b811015611733578461211d826001612ca194016009556130a2565b818303612d42575b50612cb383612eaf565b60008181526004602052604081208054600019810191908211612d2e575582815260046020526040812080549060018201809211612d2e575583815260036020526040812080546001600160a01b031916841790557fddf252ad1be2c89b69c2b068fc378daa952ba7f163c4a11628f55a4df523b3ef9080a4565b634e487b7160e01b83526011600452602483fd5b612d4b9061299d565b60406000848152600760205281812083825260205285828220558581526008602052205538612ca9565b838303612d83575b50612ca1565b612d8c9061299d565b6000198101908111611749576000908582526020906008825260409182842054828103612dd4575b508784528383812055858452600781528284209184525281205538612d7d565b8685526007825283852083865282528385205487865260078352848620828752835280858720558552600882528385205538612db4565b60405162461bcd60e51b8152602060048201526024808201527f4552433732313a207472616e7366657220746f20746865207a65726f206164646044820152637265737360e01b6064820152608490fd5b60405162461bcd60e51b815260206004820152602560248201527f4552433732313a207472616e736665722066726f6d20696e636f72726563742060448201526437bbb732b960d91b6064820152608490fd5b600081815260056020526040812080546001600160a01b03191690556001600160a01b03612edc83612a60565b167f8c5be1e5ebec7d5bd14f71427d1e84f3dd0314c0f7b2291e5b200ac8c7c3b9258280a4565b3d15612f2e573d90612f14826127cd565b91612f2260405193846127ac565b82523d6000602084013e565b606090565b9091600091803b1561301e57612f7e6020918493604051948580948193630a85bd0160e11b9a8b84523360048501528460248501526044840152608060648401526084830190612707565b03926001600160a01b03165af190829082612fd6575b5050612fc857612fa2612f03565b80519081612fc35760405162461bcd60e51b81528061245f60048201612b5e565b602001fd5b6001600160e01b0319161490565b909192506020813d8211613016575b81612ff2602093836127ac565b810103126102745751906001600160e01b03198216820361029c5750903880612f94565b3d9150612fe5565b50505050600190565b91926000929190813b156130985760209161307d9185604051958680958194630a85bd0160e11b9b8c845233600485015260018060a01b0380951660248501526044840152608060648401526084830190612707565b0393165af190829082612fd6575050612fc857612fa2612f03565b5050505050600190565b6009548110156130d95760096000527f6e1540171b6c0c960b71a7020d9f60077f6af931a8bbf590da0223dacf75c7af0190600090565b634e487b7160e01b600052603260045260246000fd5b156130f657565b60405162461bcd60e51b81526020600482015260116024820152703ab730b8383937bb32b21031b0b63632b960791b6044820152606490fd5b60209081818403126117c6578051906001600160401b0382116117c657019180601f840112156117c65782516131648161291d565b9361317260405195866127ac565b818552838086019260051b8201019283116117c6578301905b828210613199575050505090565b8151815290830190830161318b565b908160209103126117c657516001600160801b03811681036117c65790565b156131ce57565b60405162461bcd60e51b815260206004820152601f60248201527f5265656e7472616e637947756172643a207265656e7472616e742063616c6c006044820152606490fd5b60e0906040918291825161322681612747565b600092818480935282602082015282868201528260608201528260808201528260a08201528260c082015201528152600e60205220906132e681519261326b84612747565b600560018060a01b0391828154168652826001820154166020870152600281015492831692838688015260a01c606087015260038101546001600160801b038116608088015260801c60a0870152600481015460c0870152015460e085015260018060a01b0316600052600d60205260ff6040600020541690565b156132ef575090565b5162461bcd60e51b8152602060048201526012602482015271706f6f6c206d75737420626520616c69766560701b6044820152606490fd5b81835290916001600160fb1b0383116117c65760209260051b809284830137010190565b80518210156130d95760209160051b010190565b91949360005b8151811015613489576001600160a01b0385811690613384838561334b565b5190823b156117c65760408051632142170760e11b81526001600160a01b03888116600480840191909152908d166024830152604482019490945290929060008160648183895af1801561347e5761346f575b5030828c16146133ee575b50505050600101613365565b6133f8858761334b565b5193803b156117c657835163095ea7b360e01b81529289166001600160a01b03169183019182526020820194909452909260009184919082908490829060400103925af190811561346557509060019291613456575b8192816133e2565b61345f90612763565b3861344e565b513d6000823e3d90fd5b61347890612763565b386133d7565b84513d6000823e3d90fd5b50505050509050565b6000828152600360205260409020549091906001600160a01b0316156134cc576134bb90612a60565b6001600160a01b0390811691161490565b5050600090565b156134da57565b60405162461bcd60e51b81526020600482015260096024820152683737ba1037bbb732b960b91b6044820152606490fd5b90919015613517575090565b8151156135275750805190602001fd5b60405162461bcd60e51b81526020600482015290819061245f906024830190612707565b1561355257565b60405162461bcd60e51b815260206004820152602760248201527f63616c6c207573654c50546f6b656e546f44657374726f7944697265637450616044820152666972455448282960c81b6064820152608490fdfea2646970667358221220413977c7ea349ce53a668851ebf1953be33447cf74f60cf846da6cdf6476300464736f6c63430008110033",
  "devdoc": {
    "kind": "dev",
    "methods": {
      "approve(address,uint256)": {
        "details": "See {IERC721-approve}."
      },
      "balanceOf(address)": {
        "details": "See {IERC721-balanceOf}."
      },
      "getApproved(uint256)": {
        "details": "See {IERC721-getApproved}."
      },
      "isApprovedForAll(address,address)": {
        "details": "See {IERC721-isApprovedForAll}."
      },
      "name()": {
        "details": "See {IERC721Metadata-name}."
      },
      "owner()": {
        "details": "Returns the address of the current owner."
      },
      "ownerOf(uint256)": {
        "details": "See {IERC721-ownerOf}."
      },
      "rescueERC1155(address,uint256[],uint256[],uint256)": {
        "params": {
          "a": "The NFT to transfer",
          "amounts": "The amounts of each id to transfer",
          "ids": "The NFT ids to transfer",
          "tokenId": "0 = rescue from this contract, non-zero = rescue from specified pool (cannot touch users' NFTs)"
        }
      },
      "rescueERC20(address,uint256,uint256)": {
        "params": {
          "a": "The token to transfer",
          "amount": "The amount of tokens to send to the owner",
          "tokenId": "0 = rescue from this contract, non-zero = rescue from specified pool"
        }
      },
      "rescueERC721(address,uint256[],uint256)": {
        "params": {
          "a": "The NFT to rescue",
          "nftIds": "NFT IDs to rescue",
          "tokenId": "0 = rescue from this contract, non-zero = rescue from specified pool (cannot touch users' NFTs)"
        }
      },
      "safeTransferFrom(address,address,uint256)": {
        "details": "See {IERC721-safeTransferFrom}."
      },
      "safeTransferFrom(address,address,uint256,bytes)": {
        "details": "See {IERC721-safeTransferFrom}."
      },
      "setApprovalForAll(address,bool)": {
        "details": "See {IERC721-setApprovalForAll}."
      },
      "symbol()": {
        "details": "See {IERC721Metadata-symbol}."
      },
      "tokenByIndex(uint256)": {
        "details": "See {IERC721Enumerable-tokenByIndex}."
      },
      "tokenOfOwnerByIndex(address,uint256)": {
        "details": "See {IERC721Enumerable-tokenOfOwnerByIndex}."
      },
      "totalSupply()": {
        "details": "See {IERC721Enumerable-totalSupply}."
      },
      "transferFrom(address,address,uint256)": {
        "details": "See {IERC721-transferFrom}."
      },
      "transferOwnership(address)": {
        "details": "Transfers ownership of the contract to a new account (`newOwner`). Disallows setting to the zero address as a way to more gas-efficiently avoid reinitialization When ownership is transferred, if the new owner implements IOwnershipTransferCallback, we make a callback Can only be called by the current owner."
      }
    },
    "stateVariables": {
      "_mapNFTIDToPool": {
        "details": "mapping of token IDs to pools"
      },
      "_nextTokenId": {
        "details": "The ID of the next token that will be minted. Skips 0"
      }
    },
    "version": 1
  },
  "userdoc": {
    "kind": "user",
    "methods": {
      "rescueERC1155(address,uint256[],uint256[],uint256)": {
        "notice": "Rescues ERC1155 tokens. Only callable by the owner if rescuing from this contract, else can be called by tokenId owner.There are some cases where an NFT is both ERC721 and ERC1155, so we have to ensure that the users' NFTs arent touched"
      },
      "rescueERC20(address,uint256,uint256)": {
        "notice": "Rescues ERC20 tokens. Only callable by the owner if rescuing from this contract, else can be called by tokenId owner.Since pools created cannot be paired with ERC20 tokens, there is no validation on the ERC20 token "
      },
      "rescueERC721(address,uint256[],uint256)": {
        "notice": "Rescues ERC721 tokens. Only callable by the owner if rescuing from this contract, else can be called by tokenId owner."
      }
    },
    "version": 1
  },
  "storageLayout": {
    "storage": [
      {
        "astId": 5369,
        "contract": "contracts/Collectionswap.sol:Collectionswap",
        "label": "_owner",
        "offset": 0,
        "slot": "0",
        "type": "t_address"
      },
      {
        "astId": 784,
        "contract": "contracts/Collectionswap.sol:Collectionswap",
        "label": "_name",
        "offset": 0,
        "slot": "1",
        "type": "t_string_storage"
      },
      {
        "astId": 786,
        "contract": "contracts/Collectionswap.sol:Collectionswap",
        "label": "_symbol",
        "offset": 0,
        "slot": "2",
        "type": "t_string_storage"
      },
      {
        "astId": 790,
        "contract": "contracts/Collectionswap.sol:Collectionswap",
        "label": "_owners",
        "offset": 0,
        "slot": "3",
        "type": "t_mapping(t_uint256,t_address)"
      },
      {
        "astId": 794,
        "contract": "contracts/Collectionswap.sol:Collectionswap",
        "label": "_balances",
        "offset": 0,
        "slot": "4",
        "type": "t_mapping(t_address,t_uint256)"
      },
      {
        "astId": 798,
        "contract": "contracts/Collectionswap.sol:Collectionswap",
        "label": "_tokenApprovals",
        "offset": 0,
        "slot": "5",
        "type": "t_mapping(t_uint256,t_address)"
      },
      {
        "astId": 804,
        "contract": "contracts/Collectionswap.sol:Collectionswap",
        "label": "_operatorApprovals",
        "offset": 0,
        "slot": "6",
        "type": "t_mapping(t_address,t_mapping(t_address,t_bool))"
      },
      {
        "astId": 1774,
        "contract": "contracts/Collectionswap.sol:Collectionswap",
        "label": "_ownedTokens",
        "offset": 0,
        "slot": "7",
        "type": "t_mapping(t_address,t_mapping(t_uint256,t_uint256))"
      },
      {
        "astId": 1778,
        "contract": "contracts/Collectionswap.sol:Collectionswap",
        "label": "_ownedTokensIndex",
        "offset": 0,
        "slot": "8",
        "type": "t_mapping(t_uint256,t_uint256)"
      },
      {
        "astId": 1781,
        "contract": "contracts/Collectionswap.sol:Collectionswap",
        "label": "_allTokens",
        "offset": 0,
        "slot": "9",
        "type": "t_array(t_uint256)dyn_storage"
      },
      {
        "astId": 1785,
        "contract": "contracts/Collectionswap.sol:Collectionswap",
        "label": "_allTokensIndex",
        "offset": 0,
        "slot": "10",
        "type": "t_mapping(t_uint256,t_uint256)"
      },
      {
        "astId": 2110,
        "contract": "contracts/Collectionswap.sol:Collectionswap",
        "label": "_tokenURIs",
        "offset": 0,
        "slot": "11",
        "type": "t_mapping(t_uint256,t_string_storage)"
      },
      {
        "astId": 5477,
        "contract": "contracts/Collectionswap.sol:Collectionswap",
        "label": "_status",
        "offset": 0,
        "slot": "12",
        "type": "t_uint256"
      },
      {
        "astId": 3828,
        "contract": "contracts/Collectionswap.sol:Collectionswap",
        "label": "_mapPoolsToIsLiveForAnyNFT",
        "offset": 0,
        "slot": "13",
        "type": "t_mapping(t_address,t_bool)"
      },
      {
        "astId": 3834,
        "contract": "contracts/Collectionswap.sol:Collectionswap",
        "label": "_mapNFTIDToPool",
        "offset": 0,
        "slot": "14",
        "type": "t_mapping(t_uint256,t_struct(LPTokenParams721ETH)5088_storage)"
      },
      {
        "astId": 3837,
        "contract": "contracts/Collectionswap.sol:Collectionswap",
        "label": "_nextTokenId",
        "offset": 0,
        "slot": "15",
        "type": "t_uint256"
      }
    ],
    "types": {
      "t_address": {
        "encoding": "inplace",
        "label": "address",
        "numberOfBytes": "20"
      },
      "t_address_payable": {
        "encoding": "inplace",
        "label": "address payable",
        "numberOfBytes": "20"
      },
      "t_array(t_uint256)dyn_storage": {
        "base": "t_uint256",
        "encoding": "dynamic_array",
        "label": "uint256[]",
        "numberOfBytes": "32"
      },
      "t_bool": {
        "encoding": "inplace",
        "label": "bool",
        "numberOfBytes": "1"
      },
      "t_mapping(t_address,t_bool)": {
        "encoding": "mapping",
        "key": "t_address",
        "label": "mapping(address => bool)",
        "numberOfBytes": "32",
        "value": "t_bool"
      },
      "t_mapping(t_address,t_mapping(t_address,t_bool))": {
        "encoding": "mapping",
        "key": "t_address",
        "label": "mapping(address => mapping(address => bool))",
        "numberOfBytes": "32",
        "value": "t_mapping(t_address,t_bool)"
      },
      "t_mapping(t_address,t_mapping(t_uint256,t_uint256))": {
        "encoding": "mapping",
        "key": "t_address",
        "label": "mapping(address => mapping(uint256 => uint256))",
        "numberOfBytes": "32",
        "value": "t_mapping(t_uint256,t_uint256)"
      },
      "t_mapping(t_address,t_uint256)": {
        "encoding": "mapping",
        "key": "t_address",
        "label": "mapping(address => uint256)",
        "numberOfBytes": "32",
        "value": "t_uint256"
      },
      "t_mapping(t_uint256,t_address)": {
        "encoding": "mapping",
        "key": "t_uint256",
        "label": "mapping(uint256 => address)",
        "numberOfBytes": "32",
        "value": "t_address"
      },
      "t_mapping(t_uint256,t_string_storage)": {
        "encoding": "mapping",
        "key": "t_uint256",
        "label": "mapping(uint256 => string)",
        "numberOfBytes": "32",
        "value": "t_string_storage"
      },
      "t_mapping(t_uint256,t_struct(LPTokenParams721ETH)5088_storage)": {
        "encoding": "mapping",
        "key": "t_uint256",
        "label": "mapping(uint256 => struct ICollectionswap.LPTokenParams721ETH)",
        "numberOfBytes": "32",
        "value": "t_struct(LPTokenParams721ETH)5088_storage"
      },
      "t_mapping(t_uint256,t_uint256)": {
        "encoding": "mapping",
        "key": "t_uint256",
        "label": "mapping(uint256 => uint256)",
        "numberOfBytes": "32",
        "value": "t_uint256"
      },
      "t_string_storage": {
        "encoding": "bytes",
        "label": "string",
        "numberOfBytes": "32"
      },
      "t_struct(LPTokenParams721ETH)5088_storage": {
        "encoding": "inplace",
        "label": "struct ICollectionswap.LPTokenParams721ETH",
        "members": [
          {
            "astId": 5073,
            "contract": "contracts/Collectionswap.sol:Collectionswap",
            "label": "nftAddress",
            "offset": 0,
            "slot": "0",
            "type": "t_address"
          },
          {
            "astId": 5075,
            "contract": "contracts/Collectionswap.sol:Collectionswap",
            "label": "bondingCurveAddress",
            "offset": 0,
            "slot": "1",
            "type": "t_address"
          },
          {
            "astId": 5077,
            "contract": "contracts/Collectionswap.sol:Collectionswap",
            "label": "poolAddress",
            "offset": 0,
            "slot": "2",
            "type": "t_address_payable"
          },
          {
            "astId": 5079,
            "contract": "contracts/Collectionswap.sol:Collectionswap",
            "label": "fee",
            "offset": 20,
            "slot": "2",
            "type": "t_uint96"
          },
          {
            "astId": 5081,
            "contract": "contracts/Collectionswap.sol:Collectionswap",
            "label": "delta",
            "offset": 0,
            "slot": "3",
            "type": "t_uint128"
          },
          {
            "astId": 5083,
            "contract": "contracts/Collectionswap.sol:Collectionswap",
            "label": "initialSpotPrice",
            "offset": 16,
            "slot": "3",
            "type": "t_uint128"
          },
          {
            "astId": 5085,
            "contract": "contracts/Collectionswap.sol:Collectionswap",
            "label": "initialPoolBalance",
            "offset": 0,
            "slot": "4",
            "type": "t_uint256"
          },
          {
            "astId": 5087,
            "contract": "contracts/Collectionswap.sol:Collectionswap",
            "label": "initialNFTIDsLength",
            "offset": 0,
            "slot": "5",
            "type": "t_uint256"
          }
        ],
        "numberOfBytes": "192"
      },
      "t_uint128": {
        "encoding": "inplace",
        "label": "uint128",
        "numberOfBytes": "16"
      },
      "t_uint256": {
        "encoding": "inplace",
        "label": "uint256",
        "numberOfBytes": "32"
      },
      "t_uint96": {
        "encoding": "inplace",
        "label": "uint96",
        "numberOfBytes": "12"
      }
    }
  }
}